:020000022000DC
:1070000000000220197202000172020003720200E5
:1070100005720200077202000972020000000000FF
:107020000000000000000000000000000B720200E1
:107030000D720200000000000F72020011720200C7
:1070400013720200B9770200B57C020013720200CD
:107050001372020013720200137202001372020014
:10706000797B020013720200137202002979020078
:1070700013720200137202001372020013720200F4
:1070800013720200137202001372020013720200E4
:10709000417902001372020013720200137202009F
:1070A00013720200137202001372020013720200C4
:1070B00013720200137202000000000000000000C2
:1070C00013720200137202001372020013720200A4
:1070D0001372020013720200137202001372020094
:1070E0001372020000000000000000000000000019
:1070F0000000000013720200000000001372020082
:10710000000000000000000000000000000000007F
:10711000000000000000000000000000000000006F
:10712000000000000000000000000000000000005F
:10713000000000000000000000000000000000004F
:10714000000000000000000000000000000000003F
:10715000000000000000000000000000000000002F
:10716000000000000000000000000000000000001F
:10717000000000000000000000000000000000000F
:1071800000000000000000000000000000000000FF
:1071900000000000000000000000000000000000EF
:1071A00000000000000000000000000000000000DF
:1071B00000000000000000000000000000000000CF
:1071C00000000000000000000000000000000000BF
:1071D00000000000000000000000000000000000AF
:1071E000000000000000000000000000000000009F
:1071F000000000000000000000000000000000008F
:10720000FEE7FEE7FEE7FEE7FEE7FEE7FEE7FEE756
:10721000FEE7FEE700F002B8FFF7FCBF05484FF0BD
:1072200007018843854604488047044804490160B3
:1072300000F008B800000220B979020008ED00E073
:1072400000700200344935480A1A02D007229143DF
:107250008D46334933480A1A06D00722914381F3F9
:107260000988022282F314882F483049304A00F0FE
:1072700042F830483049314A00F03DF83048314951
:10728000314A00F038F831483149324A00F033F8D9
:1072900031483249324A00F02EF832483249334AF6
:1072A00000F029F832483349334A00F024F83348D3
:1072B0003349002200F02AF832483349002200F016
:1072C00025F832483249091A082902DB00220260F7
:1072D00041601F481F49884205D00268043003B44A
:1072E000904703BCF7E700208646EC4600200021CB
:1072F000284A9047FEE7884207D0521A05D0037803
:1073000001300B700131013AF9D17047884202D047
:1073100002700130FAE770470000022000FC0120F3
:1073200000000220000002209C7D020000000020DE
:107330001400002098730200987302009C7D0200E4
:107340009C7D020000000020000000209C7D0200C7
:107350009C7D02009C7D02009C7D02009C7D0200C1
:107360009C7D02009C7D02009C7D02009C7D0200B1
:10737000B07D020014000020140000201400002042
:107380007405002074050020740500207405002099
:0873900074090020E3740200FF
:1073980000B583B000F0A7F83849394800F062FC1E
:1073A80000F06EFC08220021364800F0C3FC1722CA
:1073B8002D21354800F0BEFC324B0D22DA77314BD7
:1073C8000A2283F820202F4800F0CAF800238DF8FD
:1073D800063000238DF8073031E09DF80730294A40
:1073E800D35C1B09DBB203F00F029DF80630274976
:1073F800895C244A13440A461A729DF80630013300
:107408008DF806309DF807301E4AD35C03F00F0252
:107418009DF806301D49895C1A4A13440A461A72B7
:107428009DF8063001338DF806309DF8063001339B
:107438008DF806309DF8073001338DF807309DF838
:107448000730072BC9D90F4B002283F822200D4B98
:10745800002283F821200B4B93F821301A46094B60
:1074680013441B7A184600F013FC00BF054B93F831
:107478002230DBB2002BF9D094E700BFDD740200A4
:1074880099740200140000201C0000200000002055
:1074980008B50F4B93F821300133DAB20C4B83F85F
:1074A80021200B4B93F82130182B0AD8084B93F85E
:1074B80021301A46064B13441B7A184600F0E8FBA5
:1074C80003E0034B012283F8222000BF08BD00BF60
:1074D8001400002000231846704708B5FFF758FF2E
:1074E8000346184608BD08B500F00CF800F0ACF8E3
:1074F80000F072FB00F0ECF800F0B4F900F060F86E
:1075080000BF08BD08B5032000F0D5F8042000F03E
:10751800D2F81C2000F0CFF81D2000F0CCF81E2077
:1075280000F0C9F81F2000F0C6F80B2000F0C3F8DF
:107538000C2000F0C0F8192000F0BDF800BF08BD0D
:107548004FF0A0434FF08042C3F80C2500BF7047AE
:107558004FF0A0434FF08042C3F8082500BF7047A2
:1075680084B0019000238DF80F3020E09DF80F3093
:1075780003F003038DF80E304FF080529DF80F3062
:107588009B08DBB2183352F823209DF80E30C3F164
:1075980003039B0022FA03F19DF80F30019A13446C
:1075A800CAB21A709DF80F3001338DF80F309DF86C
:1075B8000F30072BDAD900BF00BF04B070470000B6
:1075C80008B51E2000F022F81F2000F01FF80E4B0F
:1075D8000022C3F800250C4B1E22C3F808250A4BCD
:1075E8001F22C3F80C25084B4FF0C862C3F82425A6
:1075F800054B4FF49052C3F80022034B0622C3F800
:10760800002500BF08BD00BF0030004084B00190D5
:10761800019B1F2B05D84FF0A0430393019B0293B6
:1076280005E0084B0393019B03F01F030293039BA0
:10763800029A02F5E07240F20C6143F8221000BF92
:1076480004B070470003005008B54FF0A043102263
:10765800C3F818254FF0A0432022C3F81825044B7F
:107668004FF40072C3F8182500F01CF800BF08BDDD
:10767800000300504FF0A0431022C3F80C2500BFB0
:1076880070474FF0A0432022C3F80C2500BF704775
:10769800034B4FF40072C3F80C2500BF704700BFBE
:1076A8000003005008B5FFF7F3FFFFF7EAFFFFF705
:1076B800E1FF00BF08BD82B001904FF0A042019BDE
:1076C80003F5E073032142F8231000BF02B07047AE
:1076D80008B54FF4A26200212D4800F02BFB2D4B7A
:1076E8000022C3F80C252B4B4FF48472C3F81425E1
:1076F800284B294AC3F81825264B40F25B62C3F889
:107708003825244B40F20312C3F83425214B234A71
:10771800C3F83C251F4B0022C3F82C251D4B012222
:10772800C3F830251B4B0322C3F81025194B9622AA
:10773800C3F84425174B8E22C3F82425154B184A45
:10774800C3F81C25134B174AC3F80425114B4FF4F3
:107758008012C3F80022144B002283F80123124B35
:107768000222C3F880200B4B104AC3F804230E4BA7
:107778000222C3F880210C4B02221A60044B00221B
:107788001A72034B012283F80C2500BF08BD00BF05
:107798003800002000100040FF0003025555550036
:1077A80000D6BE894800002000E100E00A00001869
:1077B80008B5FFF7CDFE00F005F8FFF7C1FE00BFE2
:1077C80008BD000000B583B0234BD3F804350193FE
:1077D800224BD3F80431002B10D0204B01225A61E0
:1077E8001F4B1B68002B03D01D4B1B680198984743
:1077F8001A4B0022C3F80421012329E0174BD3F8C0
:107808007031002B05D0154B0022C3F870210123DD
:107818001EE0124BD3F80C31002B05D00F4B002281
:10782800C3F80C21012313E00C4BD3F86C31002B67
:107838000DD00B4B5B68002B03D0094B5B6801989C
:107848009847064B0022C3F86C21012300E000236F
:10785800184603B05DF804FB00B00040001000407B
:107868003800002008B508220021294800F062FAF3
:10787800284B0122C3F80023264B0022C3F800211D
:10788800244B0122C3F80423234B002283F814233A
:10789800214B4FF480121A604FF080430122DA60C6
:1078A80000BF4FF08043D3F8183403F48033002B23
:1078B800F7D14FF080430122C3F818254FF08043D9
:1078C80001229A6000BF4FF08043D3F8183403F4C4
:1078D8008033002BF7D0114B01225A600F4B4FF425
:1078E8008032C3F840230C4B002283F80B230A4B49
:1078F8004FF400621A60094B0022C3F80825074BB1
:1079080001229A60054B01221A6000BF08BD00BF22
:10791800480500200040014000E100E000B00040C0
:1079280008B5044BD3F84031002B01D000F01AF809
:1079380000BF08BD00B0004008B5FFF709FE074BBF
:107948001B68002B06D0064B0022C3F80021034B0E
:107958001B689847FFF7F4FD00BF08BD48050020E5
:107968000040014008B5FFF7F3FD0A4B1B68002BE8
:107978000AD0094B0022C3F84021064B1B689847E0
:10798800FFF7DEFD012302E0FFF7DAFD00231846CA
:1079980008BD00BF4805002000B00040024B034A64
:1079A8001A6000BF704700BF100000200090D0038D
:1079B80008B500F0A7F80346002B0ED04FF080431F
:1079C8000022C3F80C214FF080430022C3F8102195
:1079D8004FF080430022C3F8382500F0A5F803468D
:1079E800002B76D04FF08053454AD3F80434C2F8C0
:1079F80020354FF08053424AD3F80834C2F8243572
:107A08004FF080533E4AD3F80C34C2F828354FF073
:107A180080533B4AD3F81034C2F82C354FF08053CA
:107A2800374AD3F81434C2F830354FF08053344A0B
:107A3800D3F81834C2F834354FF08053304AD3F8AD
:107A48001C34C2F840354FF080532D4AD3F8203407
:107A5800C2F844354FF08053294AD3F82434C2F889
:107A680048354FF08053264AD3F82834C2F84C35AD
:107A78004FF08053224AD3F82C34C2F850354FF0D7
:107A880080531F4AD3F83034C2F854354FF080532E
:107A98001B4AD3F83434C2F860354FF08053184A83
:107AA800D3F83834C2F864354FF08053144AD3F809
:107AB8003C34C2F868354FF08053114AD3F840344B
:107AC800C2F86C354FF080530D4AD3F84434C2F8ED
:107AD800703500F03BF80346002B0DD04FF0804383
:107AE800D3F8003403F00103002B05D04FF0804396
:107AF8006FF00102C3F80024FFF750FF00BF08BD74
:107B080000C00040064B1B680D2B05D1054B1B68B8
:107B1800002B01D1012300E000231846704700BF65
:107B28003001001034010010064B1B680D2B05D1E5
:107B3800054B1B68002B01D1012300E000231846E8
:107B4800704700BF3001001034010010064B1B685D
:107B58000D2B05D1054B1B68002B01D1012300E03B
:107B680000231846704700BF300100103401001090
:107B780000B583B000238DF8073020E0144A9DF843
:107B88000730503352F82330002B13D0104A9DF899
:107B980007305033002142F823109DF807300D4A72
:107BA80052F82330002B05D09DF80730094A52F8C7
:107BB800233098479DF8073001338DF807309DF83A
:107BC8000730052BDAD900BF00BF03B05DF804FB0E
:107BD800008000405005002008B50C2200211D48F7
:107BE80000F0A8F84FF0A0434FF40062C3F808254E
:107BF8004FF0A0430322C3F82C274FF0A0430022E4
:107C0800C3F85027144B154AC3F82425124B0022F9
:107C1800C3F86C25104B1422C3F814250E4B0B2205
:107C2800C3F80C250C4B8422C3F804230C4B2022E8
:107C380083F802230A4B04221A60074B0422C3F874
:107C48000025054B01229A60034B01221A6000BFF0
:107C580008BD00BF680500200020004000E0D701F3
:107C680000E100E082B001900091044A019B13609A
:107C7800024A009B536000BF02B0704768050020AD
:107C8800024B8422C3F8042300BF70470020004041
:107C980082B003468DF80730034A9DF80730C2F8D2
:107CA8001C3500BF02B070470020004008B5FFF740
:107CB8004FFC0D4BD3F80831002B05D00A4B00229E
:107CC800C3F8082100F022F8074BD3F81C31002B29
:107CD80005D0054B0022C3F81C2100F007F8FFF778
:107CE8002FFC00BF08BD00BF0020004008B5064BB0
:107CF8001B68002B04D0044B1B689847012300E045
:107D08000023184608BD00BF6805002008B5064BCB
:107D18005B68002B04D0044B5B689847012300E0A4
:107D28000023184608BD00BF6805002000220B008C
:107D380011001A0084465AB3830704D000F8011BC7
:107D4800013AF9D124E0C9B241EA012141EA0141ED
:107D5800202A11D3203A2DE9F0030B460C460D4694
:107D68000E460F4688468946A0E8FA03203AFBD219
:107D7800BDE8F00320320BD0042A05D340F8041BD9
:107D8800043A05D0042AF9D200F8011B013AFBD1C4
:047D9800604670478A
:107D9C003031323334353637383961626364656675
:047DAC000090D00370
:04000003200072194E
:00000001FF
